:020000040800F2
:1000000000500020C51C00089D0800089F0800083B
:10001000A1080008A3080008A508000800000000C7
:10002000000000000000000000000000A708000819
:10003000A908000800000000AB080008AD0800088F
:100040000D1D00080D1D00080D1D00080D1D0008E8
:100050000D1D00080D1D00080D1D00080D1D0008D8
:100060000D1D00080D1D00080D1D00080D1D0008C8
:100070000D1D00080D1D00080D1D00080D1D0008B8
:100080000D1D00080D1D00080D1D00080D1D0008A8
:100090000D1D00080D1D00080D1D00080D1D000898
:1000A0000D1D00080D1D00080D1D00080D1D000888
:1000B0000D1D00080D1D00080D1D00080D1D000878
:1000C0000D1D00080D1D00080D1D00080D1D000868
:1000D0000D1D00080D1D00080D1D0008B5080008C5
:1000E0000D1D00080D1D00080D1D0008000000007A
:1000F0000000000000000000000000000000000000
:0C01000000000000000000005FF808F1A3
:10010C0010B5054C237833B9044B13B10448AFF345
:10011C0000800123237010BDEC00002000000000C3
:10012C00681D000808B5034B1BB103490348AFF326
:10013C00008008BD00000000F0000020681D0008D1
:10014C0030B589B0002404940594069407941D4B93
:10015C009A6942F010029A619A6902F010020092B8
:10016C00009A9A6942F020029A619A6902F0200280
:10017C000192019A9A6942F008029A619A6902F016
:10018C0008020292029A9A6942F004029A619B69EF
:10019C0003F004030393039B0B4D22464FF40051D1
:1001AC00284600F0B1FD4FF400530493012305934E
:1001BC0006940223079304A9284600F0B9FC09B061
:1001CC0030BD00BF001002400010014090F86630B6
:1001DC00C21851700A290AD00133DBB280F866309C
:1001EC000278934202D3002380F8663070475A1E7F
:1001FC00024452780D2AEFD190F86720013280F832
:10020C006720E9E7401A642303FB00F0521A90FBC5
:10021C00F2F04FF4BE6202FB00F2054B83FB0213BB
:10022C00D017C0EB631000F5F07080B2704700BFC0
:10023C001F85EB5138B50546002480F867402346EE
:10024C0008E003EB830253000B44DBB2303BDBB220
:10025C000134E4B22A78A24240F2E0802A195178A3
:10026C00A1F13002362AF3D801A050F822F000BFD9
:10027C004F0200084F0200084F0200084F0200080E
:10028C004F0200084F0200084F0200084F020008FE
:10029C004F0200084F0200085D0200085D020008D2
:1002AC005D0200085D0200085D0200085D020008A6
:1002BC005D02000859030008790300089B0300083D
:1002CC00BD030008E1030008050400085D020008F6
:1002DC005D0200085D0200085D0200085D02000876
:1002EC005D0200085D0200085D0200085D02000866
:1002FC005D0200085D0200085D0200085D02000856
:10030C005D0200085D0200085D0200085D02000845
:10031C005D0200085D0200085D0200085D02000835
:10032C005D0200085D0200085D0200085D02000825
:10033C005D02000859030008790300089B030008BC
:10034C00BD030008E103000805040008344A907856
:10035C00984203D95078984200D21846B422002112
:10036C00FFF750FF2E4BD881002371E72C4A927D6A
:10037C009A4206D32A4BDA810023294A538400235C
:10038C0066E7274A527D9A42F7D80023F5E7244ABC
:10039C0092F82A209A4206D2214A92F829209A42AF
:1003AC0002D8002300E000231D4AD38600234FE728
:1003BC001B4A92F83E209A4206D2194A92F83D20E6
:1003CC009A4202D8002300E00023154AA2F84A30D2
:1003DC0000233DE7124A92F852209A4206D2104A64
:1003EC0092F851209A4202D8002300E000230C4AD4
:1003FC00A2F85E3000232BE7094A92F866209A4255
:10040C0006D2074A92F865209A4202D8002300E0EF
:10041C000023034AA2F87230002319E7002038BDEC
:10042C000000002072B6FEE708B50A480A4B0360CC
:10043C004FF4E133436000238360C36003610C22FB
:10044C0042618361C36101F08BFA00B908BDFFF70B
:10045C00E9FF00BF500100200048004010B592B0E9
:10046C0000241094119409940A940B940C940D94F8
:10047C000E940F942022214601A801F067FC30480D
:10048C00304B036007234360846044F61F63C360F2
:10049C0004614461846101F02BF8002842D10023EF
:1004AC001093119310A9264801F06AF900283BD14A
:1004BC00702309934FF47A730A9302230B9300224F
:1004CC000C920D920E920F9209A91D4801F06EF834
:1004DC0060BB042209A91A4801F068F840BB4FF42C
:1004EC00FA630A93082209A9154801F05FF808BBC2
:1004FC000C2209A9124801F059F8E8B9002301931C
:10050C0002930393049305934FF4005206920893BD
:10051C0001A90B4801F068F980B9094800F02EF9DF
:10052C0012B010BDFFF77EFFFFF77CFFFFF77AFFDD
:10053C00FFF778FFFFF776FFFFF774FFFFF772FF07
:10054C0094010020002C014000B58BB000230893CF
:10055C0009930193029303930493059306930793D2
:10056C002348244A026007224260836044F61F62DB
:10057C00C2600361836100F0BBFF68BB002308937A
:10058C00099308A91A4801F0FBF838BB60230193C2
:10059C004FF4FA63029300220392059201A91448C6
:1005AC0001F004F8E0B904220DEB0201104800F050
:1005BC00FDFFB8B9082201A90D4800F0F7FF98B962
:1005CC000C2201A90A4800F0F1FF78B9084800F0A4
:1005DC00D5F80BB05DF804FBFFF724FFFFF722FF03
:1005EC00FFF720FFFFF71EFFFFF71CFFFFF71AFFB7
:1005FC00080100200008004000B591B02422002121
:10060C0007A801F0A3FB0023019302930393049327
:10061C0005930223069301220A9210220B920D934A
:10062C0006A800F08DFB70B90F23019302230293EF
:10063C00002103910491059101A800F0C1FD20B99E
:10064C0011B05DF804FBFFF7EDFEFFF7EBFE0000C9
:10065C0010B500F071F9FFF7CFFFFFF771FDFFF751
:10066C00E3FEFFF7FBFEFFF76FFF1A4C002120465D
:10067C0001F014F80421204601F010F8082120465E
:10068C0001F00CF80C21204601F008F8124C002166
:10069C00204601F003F80421204600F0FFFF08215A
:1006AC00204600F0FBFF0C21204600F0F7FF0B4A20
:1006BC00D36843F02003D360094B40F2DC525A63F9
:1006CC00084B93F8DF30002BFAD00748FFF7B2FD48
:1006DC00F6E700BF9401002008010020004800400C
:1006EC00002C0140000000207800002082B00E4B4E
:1006FC009A6942F001029A619A6902F00102009231
:10070C00009ADA6942F08052DA61DB6903F08053B7
:10071C000193019B054A536823F0E06343F0007397
:10072C00536002B0704700BF00100240000001404F
:10073C0082B003680E4A934204D00E4A93420CD006
:10074C0002B070470C4B9A6942F400629A619B6943
:10075C0003F400630093009BF2E7074BDA6942F065
:10076C000402DA61DB6903F004030193019BE7E700
:10077C00002C0140000800400010024000B587B07A
:10078C00002302930393049305930368194A93423D
:10079C0005D0194A934217D007B05DF804FB174BEC
:1007AC009A6942F004029A619B6903F00403009376
:1007BC00009B4FF47063029302230393059302A9E9
:1007CC000F4800F0B5F9E7E70C4B9A6942F00802C4
:1007DC009A619B6903F008030193019B4FF47073BA
:1007EC00029302230393059302A9064800F0A0F993
:1007FC00D2E700BF002C014000080040001002406E
:10080C0000080140000C014030B587B00023029372
:10081C0003930493059302681B4B9A4201D007B0D3
:10082C0030BD03F5E433DA6942F48022DA61DA6927
:10083C0002F480220092009A9A6942F008029A61AE
:10084C009B6903F008030193019B4FF480630293AF
:10085C0002230393032305930C4D02A9284600F0B1
:10086C0067F94FF40063029300240394049402A9E3
:10087C00284600F05DF922462146272000F092F828
:10088C00272000F0C3F8CAE700480040000C0140E4
:10089C00FEE7FEE7FEE7FEE7FEE7704770477047AE
:1008AC0008B500F05BF808BD00B583B000238DF8E7
:1008BC0007300B4B1B6813F0200F05D1094801F0D2
:1008CC0001F903B05DF804FB054B5B68DBB28DF8F6
:1008DC0007309DF807100448FFF778FCEEE700BFDF
:1008EC0000480040500100207800002070470000B4
:1008FC0010B504460E4B18784FF47A73B3FBF0F333
:10090C000C4A1068B0FBF3F000F08EF868B90F2CAD
:10091C0001D901200AE0002221464FF0FF3000F0FF
:10092C0041F8034B5C60002000E0012010BD00BFCB
:10093C00E4000020E000002008B5074A136843F0EB
:10094C0010031360032000F01BF80F20FFF7D0FFFB
:10095C00FFF7CCFE002008BD00200240034A1168BE
:10096C00034B1B780B441360704700BF040200203C
:10097C00E4000020014B1868704700BF04020020FF
:10098C00074AD36823F4E0631B041B0C000200F439
:10099C00E060184340F0BF6040F40030D060704716
:1009AC0000ED00E030B4174BDB68C3F30223C3F156
:1009BC000704042C28BF04241D1D062D18D9033B45
:1009CC004FF0FF3505FA04F421EA0401994005FAC9
:1009DC0003F322EA0303194300280BDB0901C9B214
:1009EC0000F1604000F5614080F8001330BC7047A6
:1009FC000023E5E700F00F000901C9B2024B1954BE
:100A0C00F4E700BF00ED00E014ED00E0002807DB88
:100A1C0000F01F02400901239340024A42F82030A3
:100A2C00704700BF00E100E00138B0F1807F0AD2CE
:100A3C00064B5860064AF02182F82310002098607B
:100A4C0007221A6070470120704700BF10E000E0D9
:100A5C0000ED00E090F82130022B06D004238363D4
:100A6C00002380F82030012070470268136823F0BF
:100A7C000E0313600268136823F001031360036C08
:100A8C00C16B012202FA03F34B6080F82120002392
:100A9C0080F820301846704708B590F82130022BAA
:100AAC0003D004238363012008BD0268136823F07C
:100ABC000E0313600268136823F0010313600368CC
:100ACC00194A934214D0143293421FD014329342D9
:100ADC001ED0143293421ED0143293421ED01432C4
:100AEC00934202D04FF0807203E04FF4801200E08A
:100AFC0001220E4B5A60012380F82130002380F82C
:100B0C002030436B6BB198470020CDE71022F0E703
:100B1C004FF48072EDE74FF48052EAE74FF48032E5
:100B2C00E7E70020C0E700BF0800024000000240D9
:100B3C00F0B482B000263246A2E0002D5AD0012D2E
:100B4C0000D1CE68FF2B69D88446FF2B69D895005D
:100B5C00DCF800400F27AF4024EA070406FA05F53D
:100B6C002C43CCF800404C6814F0805F00F0878078
:100B7C005F4CA56945F00105A561A46904F0010469
:100B8C000194019C9508AF1C5A4C54F8274002F074
:100B9C000307BF004FF00F0C0CFA07FC24EA0C0CF7
:100BAC00554CA04243D004F58064A04200F08180F3
:100BBC0004F58064A0427ED004F58064A04234D059
:100BCC00042435E04D4FBD4214D00BD94C4FBD42DF
:100BDC0010D007F58037BD420CD0A7F58017BD4269
:100BEC00B0D107E0A7F58017BD4203D007F58037D9
:100BFC00BD42A7D18D687DB1012D08D04461082676
:100C0C00A0E7CE6808369DE7CE680C369AE70461FB
:100C1C00082697E7002695E7042693E700F1040CD5
:100C2C0093E7A2F10805AD0092E7032400E000244D
:100C3C00BC4044EA0C0402352E4F47F825404C6862
:100C4C0014F4803F39D02F4D2C681C432C604C6819
:100C5C0014F4003F37D02B4D6C681C436C604C680F
:100C6C0014F4801F35D0274DAC681C43AC604C6825
:100C7C0014F4001F33D0234DEC682343EB60013296
:100C8C000B6833FA02F430D00124944023409C4288
:100C9C00F5D14D68122DB7D094D8022DB1D07FF676
:100CAC004CAF032DB6D0112D7FF44CAFCE6804366B
:100CBC0048E70124BCE70224BAE7124D2C6824EA69
:100CCC0003042C60C3E70F4D6C6824EA03046C60CA
:100CDC00C5E70C4DAC6824EA0304AC60C7E7094DCA
:100CEC00EC6824EA0303EB60C9E702B0F0BC704780
:100CFC0000100240000001400008014000002110DB
:100D0C00000031100004014012B909040161704760
:100D1C000161704782B0084B1B68084AA2FB032391
:100D2C005B0A00FB03F0019000BF019B5A1E01926D
:100D3C00002BF9D102B07047E0000020D34D6210B7
:100D4C00002800F0F58170B582B00446036813F0FA
:100D5C00010F2CD0AB4B5B6803F00C03042B1DD0A4
:100D6C00A84B5B6803F00C03082B12D06368B3F537
:100D7C00803F41D0002B55D103F1804303F5043360
:100D8C001A6822F480321A601A6822F480221A60DF
:100D9C0037E09C4B5B6813F4803FE7D0994B1B68A2
:100DAC0013F4003F03D06368002B00F0C381236869
:100DBC0013F0020F76D0934B5B6813F00C0F5FD0DF
:100DCC00904B5B6803F00C03082B54D02369002B69
:100DDC0000F08A808C4B01221A60FFF7CBFD054690
:100DEC00884B1B6813F0020F75D1FFF7C3FD401B36
:100DFC000228F5D90320A0E1824A136843F480331A
:100E0C001360636843B3FFF7B5FD05467D4B1B6864
:100E1C0013F4003FCBD1FFF7ADFD401B6428F5D98F
:100E2C0003208AE1B3F5A02F09D0764B1A6822F47F
:100E3C0080321A601A6822F480221A60E1E703F10A
:100E4C008043A3F53C331A6842F480221A601A6876
:100E5C0042F480321A60D4E7FFF78CFD0546694BEB
:100E6C001B6813F4003FA2D0FFF784FD401B6428DD
:100E7C00F5D9032061E1634B5B6813F4803FA5D186
:100E8C00604B1B6813F0020F04D02369012B01D0B7
:100E9C00012052E15B4A136823F0F803616943EACD
:100EAC00C1031360236813F0080F32D0A369002B21
:100EBC005BD0564B01221A60FFF75CFD0546514B87
:100ECC005B6A13F0020F21D1FFF754FD401B02287F
:100EDC00F5D9032031E14B4A136823F0F80361691B
:100EEC0043EAC1031360DDE7474B00221A60FFF7AA
:100EFC0041FD0546434B1B6813F0020FD2D0FFF7A0
:100F0C0039FD401B0228F5D9032016E10120FFF71B
:100F1C0001FF236813F0040F00F09880394BDB6954
:100F2C0013F0805F33D1374BDA6942F08052DA61CB
:100F3C00DB6903F080530193019B0125344B1B6843
:100F4C0013F4807F25D0E368012B36D0002B4CD1D5
:100F5C0003F1804303F504331A6A22F001021A628A
:100F6C001A6A22F004021A622CE0284B00221A6042
:100F7C00FFF700FD0546234B5B6A13F0020FC8D048
:100F8C00FFF7F8FC401B0228F5D90320D5E000251B
:100F9C00D4E71F4A136843F480731360FFF7EAFC2D
:100FAC0006461B4B1B6813F4807FCCD1FFF7E2FC89
:100FBC00801B6428F5D90320BFE0124A136A43F062
:100FCC0001031362E3687BB3FFF7D4FC06460D4BB9
:100FDC001B6A13F0020F38D1FFF7CCFC801B41F2D7
:100FEC0088339842F3D90320A7E0052B12D0054B88
:100FFC001A6A22F001021A621A6A22F004021A62B8
:10100C00E0E700BF00100240000042428004424270
:10101C00007000404C4B1A6A42F004021A621A6AC1
:10102C0042F001021A62CDE7FFF7A4FC0646464BDC
:10103C001B6A13F0020F08D0FFF79CFC801B41F2D7
:10104C0088339842F3D9032077E0E5B9E369002BA4
:10105C0072D03D4A526802F00C02082A56D0022B7C
:10106C0017D03A4B00221A60FFF784FC0446364B2B
:10107C001B6813F0007F47D0FFF77CFC001B022895
:10108C00F5D9032059E0304AD36923F08053D3615A
:10109C00DCE72E4B00221A60FFF76CFC05462A4B4E
:1010AC001B6813F0007F06D0FFF764FC401B02287E
:1010BC00F5D9032041E0236AB3F5803F1AD02249C9
:1010CC004B6823F47413226A606A024313434B6027
:1010DC001E4B01221A60FFF74DFC04461A4B1B688D
:1010EC0013F0007F0ED1FFF745FC001B0228F5D949
:1010FC00032022E0144A536823F40033A1680B4305
:10110C005360DCE7002018E0002016E0012B16D01D
:10111C000D4B5B6803F48031226A914201D00120AF
:10112C000BE003F47013626A93420AD0012004E0CE
:10113C0001207047012000E0002002B070BD0120AA
:10114C00FBE70020F9E700BF0010024060004242BC
:10115C0010B487B0164C94E80F000DF1180C0CE984
:10116C000F00238AADF80430124B5B6803F00C02BD
:10117C00082A1AD1C3F38342624412F8102C13F4D8
:10118C00803F05D10C4800FB02F007B010BC704743
:10119C00084B5B68C3F34043634413F8143C0748A3
:1011AC0000FB02F0B0FBF3F0EFE70448EDE700BF03
:1011BC00981D00080010024000093D0000127A0042
:1011CC00002800F0A38070B50446524B1B6803F056
:1011DC0007038B420CD24F4A136823F007030B43CF
:1011EC001360136803F007038B4201D0012070BD1C
:1011FC00236813F0020F17D013F0040F04D0464AE3
:10120C00536843F4E0635360236813F0080F04D071
:10121C00414A536843F4605353603F4A536823F088
:10122C00F003A068034353600D46236813F0010FCD
:10123C0031D06368012B20D0022B25D0364A12689E
:10124C0012F0020F64D034494A6822F003021343AF
:10125C004B60FFF78FFB06462F4B5B6803F00C03CC
:10126C006268B3EB820F16D0FFF784FB801B41F250
:10127C0088339842F0D90320B9E7274A126812F450
:10128C00003FE0D10120B2E7234A126812F0007F40
:10129C00D9D10120ABE71F4B1B6803F00703AB420E
:1012AC000CD91C4A136823F007032B4313601368F3
:1012BC0003F00703AB4201D0012098E7236813F039
:1012CC00040F06D0144A536823F4E063E1680B431F
:1012DC005360236813F0080F07D00F4A536823F4A8
:1012EC006053216943EAC1035360FFF731FF0A4B96
:1012FC005B68C3F30313094AD35CD840084B1860EE
:10130C00084B1868FFF7F4FA002070E701207047CB
:10131C0001206CE70020024000100240801D0008F4
:10132C00E0000020E8000020014B1868704700BF67
:10133C00E000002008B5FFF7F7FF044B5B68C3F330
:10134C000223034AD35CD84008BD00BF0010024002
:10135C00901D000808B5FFF7E7FF044B5B68C3F36B
:10136C00C223034AD35CD84008BD00BF0010024022
:10137C00901D000870B4036A23F001030362036A32
:10138C004268846924F073040D6845EA040623F06E
:10139C0002048B6823430D4DA84209D00B4DA84283
:1013AC000DD0426086614A684263036270BC70472C
:1013BC0023F00803CC68234323F00403EEE722F464
:1013CC0040724C6914438A692243EAE7002C0140BD
:1013DC0030B4036A23F480730362036A4268C469FD
:1013EC0024F073040D682C4323F400738D6843EAD6
:1013FC0005230F4DA84209D00D4DA8420ED04260D6
:10140C00C4614A68C263036230BC704723F4006352
:10141C00CD6843EA052323F48063EDE722F44052C0
:10142C004D6942EA05128D6942EA0512E7E700BFF1
:10143C00002C014030B4036A23F480530362036A26
:10144C004468C26922F4E6420D6842EA052223F49C
:10145C0000538D6843EA0533074DA84206D044601B
:10146C00C2614A680264036230BC704724F4804451
:10147C004D6944EA8514F2E7002C014003681B4ACD
:10148C0090420AD0B0F1804F07D0A2F5943290422E
:10149C0003D002F58062904203D123F070034A68B6
:1014AC001343124A90420AD0B0F1804F07D0A2F5F4
:1014BC009432904203D002F58062904203D123F41F
:1014CC004073CA68134323F080034A6913430360D3
:1014DC008B68C3620B688362044B984202D0012371
:1014EC00436170470B690363F9E700BF002C0140AF
:1014FC0038B310B5044690F83D30EBB1022384F8B4
:10150C003D30211D2068FFF7B9FF012384F84630D8
:10151C0084F83E3084F83F3084F8403084F8413011
:10152C0084F8423084F8433084F8443084F84530F1
:10153C0084F83D30002010BD80F83C30FFF7F8F8FF
:10154C00DCE701207047000030B4036A23F010037D
:10155C000362036A4468826922F4E6420D6842EA37
:10156C00052223F020038D6843EA05130E4DA84293
:10157C0009D00D4DA8420ED0446082614A68826346
:10158C00036230BC704723F08003CD6843EA051337
:10159C0023F04003EDE724F440644D6944EA8504EC
:1015AC008D6944EA8504E7E7002C014038B590F8D2
:1015BC003C30012B60D00D460446012380F83C30B2
:1015CC000C2A1AD8DFE802F0071919191D19191974
:1015DC003119191944000068FFF7CCFE2268936991
:1015EC0043F0080393612268936923F00403936129
:1015FC002268936929690B439361002084F83C00AD
:10160C0038BD0068FFF7A0FF2268936943F40063BC
:10161C0093612268936923F48063936122689369D0
:10162C00296943EA01239361E7E70068FFF7D0FEDD
:10163C002268D36943F00803D3612268D36923F08D
:10164C000403D3612268D36929690B43D361D4E7BE
:10165C000068FFF7EFFE2268D36943F40063D3619F
:10166C002268D36923F48063D3612268D369296922
:10167C0043EA0123D361C0E70220C1E710B401F0B3
:10168C001F01012303FA01F4036A23EA0403036232
:10169C00036A8A401343036210BC70470A4669BB55
:1016AC0090F83E30DBB213F1FF3318BF0123002B4F
:1016BC0060D110B5002A3DD1022380F83E3011468E
:1016CC00044601220068FFF7D9FF23682B4A934296
:1016DC0040D02368294A934241D0B3F1804F3ED089
:1016EC00A2F5943293423AD002F58062934236D0FE
:1016FC001A6842F001021A6000203AE0042909D06D
:10170C0008290FD090F84130DBB213F1FF3318BF2A
:10171C000123CCE790F83F30DBB213F1FF3318BF55
:10172C000123C4E790F84030DBB213F1FF3318BF4C
:10173C000123BCE7042A05D0082A07D0022380F82D
:10174C004130BCE7022380F83F30B8E7022380F831
:10175C004030B4E75A6C42F400425A64B9E79A68D4
:10176C0002F00702062A07D01A6842F001021A603A
:10177C00002010BD012070470020FAE7002C01402A
:10178C0090F83C30012B2BD030B4012380F83C3046
:10179C00022380F83D3003685C689D6824F0700477
:1017AC000A6822435A6003680E4A93420AD0B3F186
:1017BC00804F07D0A2F59432934203D002F5806299
:1017CC00934204D125F080054A6815439D6001239E
:1017DC0080F83D30002380F83C30184630BC704710
:1017EC0002207047002C014090F83C30012B22D095
:1017FC00012380F83C30CB6823F440738A68134390
:10180C0023F480634A68134323F400630A68134388
:10181C0023F480530A69134323F400534A69134396
:10182C0023F48043CA69134302685364002380F88D
:10183C003C3018467047022070470268D36823F486
:10184C009073D3600268536923F001035361036BF7
:10185C00012B05D0202380F83E3000230363704712
:10186C000268D36823F01003D360F3E790F83D309F
:10187C00DBB2212B27D18368B3F5805F16D0036AC6
:10188C005A1C02621A7803685A60C38C013B9BB2E3
:10189C00C384D3B90268D36823F08003D360026891
:1018AC00D36843F04003D360002070470369002BDA
:1018BC00E5D1036A1B880268C3F308035360036A0B
:1018CC0002330362E1E702207047002070470000FA
:1018DC0038B504460268136923F44053C1680B43BE
:1018EC00136183680269134342691A430168CB6828
:1018FC0023F4B05323F00C031343CB6002685369F9
:10190C0023F4407381690B4353610268124B9A4272
:10191C001FD0FFF70FFD00EB800000EB8000636829
:10192C009B00B0FBF3F00D4DA5FB00325109642276
:10193C0002FB110213013233A5FB03235B0903F0F5
:10194C00F00202EB011203F00F03216813448B60C9
:10195C0038BDFFF7FFFCDEE7003801401F85EB5177
:10196C0058B310B5044690F83D300BB3242384F8DB
:10197C003D302268D36823F40053D3602046FFF730
:10198C00A7FF2268136923F49043136122685369FB
:10199C0023F02A0353612268D36843F40053D360C5
:1019AC0000202064202384F83D3084F83E3010BDA4
:1019BC0080F83C30FEF728FFD8E7012070477047CD
:1019CC0008B50168CB6823F04003CB60202380F876
:1019DC003D30FFF7F4FF002008BD7047704708B595
:1019EC00406A0023C385C384FFF7F8FF08BD704726
:1019FC0090F83E30DBB2222B60D18368B3F5805F68
:101A0C0045D0826AB3F5805F04D0002B4CD10369BA
:101A1C00002B49D103685B681370836A01338362BE
:101A2C00C38D013B9BB2C385002B49D100B583B05C
:101A3C000268D36823F02003D3600268D36823F4D0
:101A4C008073D3600268536923F001035361202330
:101A5C0080F83E30036B012B2CD10023036302680A
:101A6C00D36823F01003D36003681A6812F0100FC8
:101A7C0006D0002201921A6801925B680193019BC7
:101A8C00818DFFF7B4FF002003B05DF804FB026901
:101A9C00002AB6D1826A03685B68C3F3080313801B
:101AAC00836A02338362BBE703685B6803F07F03DE
:101ABC001370B2E7FFF791FF0020E5E702207047B3
:101ACC000020704730B583B0044602681368D068B4
:101ADC00516913F00F0505D113F0200F02D010F04F
:101AEC00200F56D1002D6AD011F0010102D110F453
:101AFC00907F64D013F0010F06D010F4807F03D0D8
:101B0C00226C42F00102226413F0040F04D019B1CC
:101B1C00226C42F00202226413F0020F04D019B1BD
:101B2C00226C42F00402226413F0080F07D010F06C
:101B3C00200F00D119B1226C42F008022264226CF1
:101B4C00002A4BD013F0200F02D010F0200F24D11C
:101B5C0023685B6903F04003226C12F0080F00D17C
:101B6C003BB32046FFF769FE23685A6912F0400F19
:101B7C001BD05A6922F040025A61A36B8BB14D4ABB
:101B8C005A63A06BFEF788FF40B3A06B436B98477A
:101B9C0024E02046FFF72CFF20E02046FFF728FF2B
:101BAC00D6E72046FFF71AFF18E02046FFF716FF8E
:101BBC0014E02046FFF712FF002323640EE0216B94
:101BCC0001290DD013F0800F02D010F0800F69D1D5
:101BDC0013F0400F02D010F0400F67D103B030BDAE
:101BEC0013F0100FEED010F0100FEBD00023019378
:101BFC001368019353680193019B536913F0400FD1
:101C0C002FD0A16B0B685B689BB2002BE6D0A08D2C
:101C1C009842E3D9E3858B69202B1AD0D36823F43F
:101C2C008073D3602268536923F0010353612268E7
:101C3C00536923F040035361202384F83E30002382
:101C4C0023632268D36823F01003D360A06BFEF7E4
:101C5C0001FFA18DE38DC91A89B22046FFF7C7FE9B
:101C6C00BCE7A18DE38DC91A89B2E38D9BB2002B21
:101C7C00B4D00029B2D0D36823F49073D360226817
:101C8C00536923F001035361202384F83E30002371
:101C9C0023632268D36823F01003D3602046FFF738
:101CAC00A6FE9BE72046FFF7E1FD97E72046FFF7EE
:101CBC0087FE93E7EB1900080C480D490D4A0023E9
:101CCC0002E0D458C4500433C4188C42F9D30A4AE5
:101CDC000A4C002301E013600432A242FBD3FEF74E
:101CEC0005FE00F00FF8FEF7B3FC70470000002073
:101CFC00EC000020B41D0008EC00002008020020BD
:101D0C00FEE7000070B500250C4E0D4CA41BA41072
:101D1C00A54209D100F022F800250A4E0A4CA41B5A
:101D2C00A410A54205D170BD56F825309847013551
:101D3C00EEE756F8253098470135F2E7AC1D000860
:101D4C00AC1D0008AC1D0008B01D00080346024481
:101D5C00934200D1704703F8011BF9E7F8B500BFB7
:101D6C00F8BC08BC9E467047F8B500BFF8BC08BC70
:041D7C009E467047C8
:101D8000000000000000000001020304060708092B
:101D9000000000000102030402030405060708090D
:0C1DA0000A0B0C0D0E0F101001020000C9
:041DAC0031010008F9
:041DB0000D01000819
:101DB400410069009401002000000000E001E001FE
:101DC40001000000421E5F0000000000000000004F
:101DD4000000000001000000431450000000000057
:101DE40000000000000000000100000044006E003C
:101DF40000000000000000000000000001000000DE
:101E0400450A8C00000000000000000000000000F3
:101E140001000000460091000000000000000000E6
:101E24000000000001000000640000000000000049
:101E3400000000000000000000000000000000009E
:101E4400000000000000000000000000000000008E
:101E5400000000000000000000000000000000007E
:101E6400000000000000000000000000000000006E
:101E7400000000000000000000000000000000005E
:101E8400000000000000000000000000000000004E
:0C1E94000024F400010000001000000019
:0400000508001CC50E
:00000001FF
